:100000000C9456000C94D6000C94D6000C94D60098
:100010000C94D6000C94D6000C94D6000C94D60008
:100020000C94D6000C94D6000C94D6000C94D600F8
:100030000C94D6000C94D6000C94D6000C94D600E8
:100040000C94D6000C94D6000C94D6000C94D600D8
:100050000C94D6000C94D6000C94D6000C94D600C8
:100060000C94D6000C94D6000C94D6000C94D600B8
:100070000C94D6000C94D6000C94D6000C94D600A8
:100080000C94D6000C94D6000C94D6000C94D60098
:100090000C94D6000C94D6000C94D6000C94D60088
:1000A0000C94D6000C94D6000C94D60011241FBEDC
:1000B000CFEFDAE0DEBFCDBF0E94B8000C94CB00DA
:0400C000F894FFCFE2
:1000C40080EF85B92FEF39E698E121503040904018
:1000D400E1F700C0000015B82FEF33ED90E3215095
:1000E40030409040E1F700C0000090E895B92FEF50
:1000F40033ED90E3215030409040E1F700C0000020
:1001040085B92FEF39E688E1215030408040E1F78E
:0601140000C00000089588
:10011A0080EF85B92FEF39E698E1215030409040C1
:10012A00E1F700C0000015B82FEF33ED90E321503E
:10013A0030409040E1F700C0000090E195B92FEF00
:10014A0033ED90E3215030409040E1F700C00000C9
:10015A0085B92FEF39E688E1215030408040E1F738
:06016A0000C00000089532
:100170008FEF84B980EF85B91AB88BB980E985B95A
:10018000C9B1C073C03111F40E946200C032B1F72E
:060190000E948D00F3CF78
:10019600EC010E94DB000E94DA00CE010E94DC0026
:0601A600CE010E94D8000A
:0401AC000C940000AF
:0401B0000E94600049
:0201B4000895AC
:0201B6000895AA
:0201B8000895A8
:00000001FF
