:020000020000FC
:0200000055C0E9
:1000AC000FEF0DBF00E10EBF222410D000001FD0B7
:1000BC00000048D0000057D000007ED0000093D044
:1000CC000000CBD00000E1D00000FFCFE2EBF3E06A
:1000DC00A0E1B1E005910D9304910C93E4EBF3E0F6
:1000EC00C2E1D1E0059109930491088308953F92F0
:1000FC004F921F920F922F92BF93AF93DF93CF9398
:10010C00FF93EF931F932F93A0E1B1E0C2E1D1E0F5
:10011C00E0E2F1E03D904990430C41923C904880E4
:10012C00431C419208F4B0832F911F91EF91FF91E2
:10013C00CF91DF91AF91BF912F900F901F904F9067
:10014C003F900895E6EBF3E0A0E3B1E005910D9349
:10015C0004910C93E8EBF3E0C2E3D1E00591099331
:10016C000491088308953F924F921F920F922F9201
:10017C00BF93AF93DF93CF93FF93EF931F932F9383
:10018C00A0E3B1E0C2E3D1E0E0E4F1E03D904990BE
:10019C00341831923C904880341831922F911F9131
:1001AC00EF91FF91CF91DF91AF91BF912F900F9075
:1001BC001F904F903F900895EAEBF3E0A0E5B1E07B
:1001CC0005910D9304910D93ECEB04910C93EEEBD4
:1001DC00F3E0C3E5D1E00591099304910993E0ECB8
:1001EC000491088308953F924F921F920F922F9281
:1001FC00BF93AF93DF93CF93FF93EF931F932F9303
:10020C00C3E5D1E0E0E6F1E0222413E0A0E5B1E0A3
:10021C0023E022243D904880349C31904190030C83
:10022C00141C3190321C221C2082329212920292A7
:10023C0031962A9571F7329721961A9539F72F91A5
:10024C001F91EF91FF91CF91DF91AF91BF912F90C3
:10025C000F901F904F903F900895E2ECF3E0A0E3D5
:10026C00B1E005910D9304910C93E4ECF3E0C2E33F
:10027C00D1E00591099304910883E6ECF3E0C2E127
:10028C00D1E005910993049108833F924F921F92FC
:10029C000F922F92BF93AF93DF93CF93FF93EF9374
:1002AC001F932F93A2E3B1E0C0E3D1E0E0E4F1E0CF
:1002BC003D904990431841923C904880431841929C
:1002CC00A0E4B1E0C2E1D1E0E0E2F1E03D90499080
:1002DC00430C41923C904880431C419208F4B083FB
:1002EC00C0E2D1E0E0E7F1E0222413E0A0E2B1E0CB
:1002FC0023E022243D904880349C31904190030CA3
:10030C00141C3190321C30821292029231962A9532
:10031C0081F7329721961A9549F72F911F91EF91FA
:10032C00FF91CF91DF91AF91BF912F900F901F90C4
:10033C004F903F9008953F924F921F920F922F92A1
:10034C00BF93AF93DF93CF93FF93EF931F932F93B1
:10035C002224C2E0D1E0E4E0F1E012E0A0E0B1E060
:10036C0022E03D904880349C31904190030C141C49
:10037C003080321C30821292029231962A9589F783
:10038C00319721961A9551F72F911F91EF91FF916B
:10039C00CF91DF91AF91BF912F900F901F904F9005
:1003AC003F9008950895BAFCFFFFB9FC20E4FFFFCD
:0C03BC00FF00FFFFFF00BAFC2220BB2165
:00000001FF
